:1000000013C02DC02CC02BC02AC06CC028C027C074
:1000100026C025C024C023C022C021C020C06DC17D
:100020001EC01DC01CC01BC011241FBECFEFD2E0DC
:10003000DEBFCDBF11E0A0E0B1E0ECEBF8E002C024
:1000400005900D92A432B107D9F721E0A4E2B1E006
:1000500001C01D92A733B207E1F755D02DC4D0CF10
:100060001F93CF93DF93EC01482F4F7061E080E046
:1000700071D2AE01529542954F7045275F7045276A
:100080004F7065E080E066D24D2F4F7067E080E0F2
:1000900061D2C0FF02C010E401C010E0C1FF02C085
:1000A00040E401C040E0C2FD1260C3FD4260C4FDF7
:1000B0001062C5FD4062C6FD1460C7FD4460D0FDFE
:1000C0001061D1FD4061D2FD1860D3FD486063E04E
:1000D00080E0E2D1412F64E080E0DED1DF91CF917A
:1000E0001F9108951F920F920FB60F9211248F93B4
:1000F000489B03C081E080932B018F910F900FBE2E
:100100000F901F901895CF93DF93CDB7DEB72E9742
:100110000FB6F894DEBF0FBECDBF84B7877F84BF14
:10012000E0E6F0E0808188618083108284E0809343
:10013000680081E080936D00ECD180D162E083E0C3
:10014000AED06FE071E082E791E030D378940F2E6B
:10015000F9E24F2EF1E05F2EF02D212C0F2EFBE067
:100160003F2EF02DCC24C394D12C0F2EF4E2AF2ED1
:10017000F1E0BF2EF02D0F2EF5E28F2EF1E09F2E35
:10018000F02D0F2EF8E26F2EF1E07F2EF02DA895C6
:1001900014D380932A01823028F00FD380932A0150
:1001A0008230D8F7813011F400004BC0811149C072
:1001B0000000F201808184FF07C0F30190818F70FD
:1001C0009093260180932701E0902601F09027016B
:1001D000022D10E0832D801B3ED18F3EF2E09F0761
:1001E00050F0C601002E02C0880F991F0A94E2F752
:1001F000E82AF92A0EC08A3F910558F4C601002E5C
:1002000002C0880F991F0A94E2F780959095E82222
:10021000F9220F5F1F4F0C301105E1F6F501E08266
:100220009F2D9F70F4018081807F892B8083909126
:100230002B0190FB84F98083C7019F7011DF10921E
:100240002B018091240190912501909329018093A5
:10025000280142E0B50181E0B4D2288739874A8776
:100260005B876C877D878E87CE010896D7D242E068
:10027000B3018AE0A6D229833A834B835C836D83E2
:100280007E838F83BE016F5F7F4FCE010896CFD2F2
:100290007ECF8EBD0DB407FEFDCF8EB50895282FFD
:1002A0002370E8E0F1E090819C7F922B9083962F61
:1002B000937090649CBD811109C02498239A259A5B
:1002C000229A2A9A8CB580618CBD06C080FF04C03A
:1002D000249A23982598229862FF03C08DB58160E7
:1002E0008DBD0895E0E0F1E09183808364835383C2
:1002F00042832583CF0126D008951F920F920FB617
:100300000F9211242F933F934F935F936F937F939B
:100310008F939F93AF93BF93EF93FF9380E091E010
:1003200077D0FF91EF91BF91AF919F918F917F9186
:100330006F915F914F913F912F910F900FBE0F9052
:100340001F901895FF920F931F93CF93DF93FC019B
:1003500094818581891710F4D48101C0D58180856D
:1003600083708330E9F4A585B6858C9188239CF051
:10037000A185B2858481882321F0C081D1818881C3
:1003800001C08FEF8C930584F685E02D8081806815
:1003900080838EEF37C08C918F778C93C1E001C042
:1003A000C0E08F01CD1710F5FF24FA94D801149600
:1003B0008C911497C81730F4ED91FC91EC0FF11D5E
:1003C000808101C08F2DD8015196ED91FC915297FB
:1003D0000995F8019581C91730F40280F381E02D69
:1003E000EC0FF11D8083CF5FCD1700F3D8011F966E
:1003F000ED91FC915097309721F0C801099580E06C
:1004000001C080E0DF91CF911F910F91FF9008957F
:10041000CF93DF93DC0115962C911597222351F091
:100420001296ED91FC91139719960D90BC91A02D09
:100430002C91208387DFDF91CF91089582E4809310
:100440007C0084E880937A00569A559A529A539A7F
:10045000519A5998089580FF02C05E9A01C05E9833
:1004600081FF02C05D9A01C05D9882FF02C05A9A66
:1004700001C05A9883FF02C05B9A01C05B98EAE70B
:10048000F0E0808180648083808186FDFDCF809153
:100490007800909179000895CF93DF9300D0CDB785
:1004A000DEB71A82198290E0880F991FE1E0F0E030
:1004B000EC0FFD1FE80FF91F6083FE01E80FF91F25
:1004C00042832898FE013196BE016D5F7F4F57E051
:1004D00040E016C0808190E0022E02C0959587957D
:1004E0000A94E2F780FF02C0299A01C029985F9A16
:1004F0005F982150310970F73196E617F70719F028
:10050000252F342FE7CF289A0F900F90DF91CF91AE
:100510000895CF93209A579A219A28985F9A299AFA
:1005200047E06BE080E0B8DF40E069E080E0B4DF06
:1005300041E06CE080E0B0DF48E06AE080E0ACDF02
:10054000C1E040E06C2F80E0A7DFCF5FC930C9F782
:10055000CF910895E0EDE40FEA3098F09FE9940F11
:100560009A3118F4E9EAE40F0CC09FEB940F9A312A
:1005700018F4E9ECE40F05C0403110F0E0E001C0F0
:10058000E42FF0E0ED5EFE4F408186DF0895FC0130
:1005900080812FEF3FEF2827022E2295207F2025F4
:1005A000032E322F22952F700226269532272327DD
:1005B000220F220F220F20254181C9018427082EF6
:1005C0008295807F8025092E982F82958F7008262E
:1005D000869598278927880F880F880F80254423C0
:1005E000F9F00280F381E02D4150242F30E02F5F9D
:1005F0003F4F2E0F3F1F41918427082E8295807F09
:100600008025092E982F82958F7008268695982729
:100610008927880F880F880F8025E217F30759F77D
:100620000895CF93DF93ECE2F1E0C381D481A581FB
:10063000B6812081277030E02330310509F44EC0A7
:100640002430310509F47DC02230310509F0ABC0FA
:10065000109701F19C9180912D01981729F08081CC
:10066000887F816080839FC080912E0111969C912C
:100670001197981740F416968C91169781601696EC
:100680008C93169779C0891708F076C011968C93D1
:10069000119772C0ECE2F1E08081887F83608083F3
:1006A000209781F480C012964D915C911397E09150
:1006B0003301F091340111962C9169818A819B81DB
:1006C000099571C0E0913301F091340120E040E0E0
:1006D00050E069818A819B81099565C0ECE2F1E077
:1006E0008081887F84608083209779F01097E9F07B
:1006F000AD014C5F5F4FE0913301F091340122E096
:1007000062E0CE01049609954EC0109709F44BC0E3
:10071000AD014C5F5F4FE0913301F091340122E075
:1007200060E080E090E009953EC0E0913301F091F7
:10073000340120E040E050E062E0CE0104960995EB
:1007400032C00000ECE2F1E08081887F8083109766
:1007500089F01496CD91DC911597CD0118DF21E039
:10076000C817D90709F420E0ECE2F1E08081887F26
:10077000822B8083000017C0ECE2F1E08081887F4B
:1007800083608083209709F08ECF12964D915C9103
:100790001397E0913301F091340111962C9160E0B0
:1007A00080E090E00995DF91CF910895ECE2F1E0CF
:1007B0009087878372876187089580912C01877065
:1007C0000895CF93DF93CDB7DEB72E970FB6F89489
:1007D000DEBF0FBECDBFFE01389697E0DF011D9250
:1007E0009A95E9F7888749877B876A8787E0DE01E2
:1007F000119601900D928A95E1F729813A814B81FA
:100800005C816D817E818F8190E02E960FB6F89489
:10081000DEBF0FBECDBFDF91CF910895CF93DF93A1
:10082000EC01B5DE9D838C83DF91CF910895CF934A
:10083000DF93DC01ECE2F1E0C185D28581E193E058
:1008400099838883B483A383768365839081987F1B
:1008500092609083109769F0672BC9F0E0913301A3
:10086000F091340122E04DE251E062E0CD010995C2
:1008700020C0672BB9F0E0913301F091340122E000
:100880004DE251E060E080E090E0099512C0E09117
:100890003301F091340120E040E050E062E0CD010E
:1008A000099507C0ECE2F1E08081887F8160808358
:0C08B0008BEFDF91CF910895F894FFCFFB
:1008BC000000000000000000004E004D004C000045
:1008CC000049017E306D79335B5F707F7B771F4E03
:0408DC003D4F470045
:00000001FF
