S010000072656769737465722E73726563AF
S113000013C02DC02CC02BC02AC06CC028C027C070
S113001026C025C024C023C022C021C020C05BC18B
S11300201EC01DC01CC01BC011241FBECFEFD2E0D8
S1130030DEBFCDBF11E0A0E0B1E0E0E3F8E002C034
S113004005900D92A432B107D9F721E0A4E2B1E002
S113005001C01D92A033B207E1F755D0E7C3D0CF5A
S11300601F93CF93DF93EC01482F4F7061E080E042
S113007068D2AE01529542954F7045275F7045276F
S11300804F7065E080E05DD24D2F4F7067E080E0F7
S113009058D2C0FF02C010E401C010E0C1FF02C08A
S11300A040E401C040E0C2FD1260C3FD4260C4FDF3
S11300B01062C5FD4062C6FD1460C7FD4460D0FDFA
S11300C01061D1FD4061D2FD1860D3FD486063E04A
S11300D080E0D7D1412F64E080E0D3D1DF91CF918C
S11300E01F9108951F920F920FB60F9211248F93B0
S11300F0489B03C081E0809324018F910F900FBE31
S11301000F901F901895CF93DF93CDB7DEB7639709
S11301100FB6F894DEBF0FBECDBF84E080936800B5
S113012081E080936D00F6D17ED162E083E095D0CA
S11301306FE071E080E691E0EDD278941A82198242
S11301401C821B82912CC12C712C812C0F2EFBE064
S1130150DF2EF02DAA24A394B12CE92CFC2C072D1E
S1130160182D8D2D801B6CD18F3E22E0920750F00C
S1130170C501002E02C0880F991F0A94E2F7E82AED
S1130180F92A0EC08A3F910558F4C501002E02C019
S1130190880F991F0A94E2F780959095E822F92236
S11301A00F5F1F4F0C301105E1F6EB829F2D9F70FE
S11301B08C81807F892B8C83C7019F7051DF909144
S11301C024018C8190FB84F98C83ABD28B8B8B893B
S11301D0882329F08B89813011F01A9BBECF8B893B
S11301E0811111C080912401882331F09B808C817E
S11301F08F70C82E109224018A8184FF03C09980D5
S11302008F70C82E00008B89813009F4000042E011
S1130210BE016D5F7F4F84E1B4D22C873D874E874A
S11302205F87688B798B8A8B62E0CE0101967DD2E1
S11302302D833E834F83588769877A878B872FD096
S1130240BE016B5F7F4FCE010C96D1D286CF8EBD9F
S11302500DB407FEFDCF8EB50895282F2370E8E076
S1130260F1E090819C7F922B9083962F9370906401
S11302709CBD811108C02498239A259A229A8CB592
S113028080618CBD06C080FF04C0249A2398259801
S1130290229862FF03C08DB581608DBD0895809161
S11302A00801837029F48CB5837080658CBD04C00B
S11302B08CB5837080648CBD8EB58FEF8EBD089530
S11302C0E0E0F1E091838083648353834283258358
S11302D0CF0126D008951F920F920FB60F921124CA
S11302E02F933F934F935F936F937F938F939F933A
S11302F0AF93BF93EF93FF9380E091E07ED0FF91A3
S1130300EF91BF91AF919F918F917F916F915F9189
S11303104F913F912F910F900FBE0F901F90189502
S11303209F92AF92BF92CF92DF92EF92FF920F9380
S11303301F93CF93DF93FC01A480E080F180B5800C
S1130340C280D380DB2DBA1408F4DA2DDD2309F43E
S113035045C0808583708330D9F4A585B6858C919A
S113036088238CF0A185B285AA2019F0E701888141
S113037001C08FEF8C930584F685E02D8081806821
S113038080838EEF2EC08C918F778C93C1E001C057
S1130390C0E08F01CD17C8F499249A94CA1528F4A3
S11303A0F701EC0FF11D808101C0892DD801519610
S11303B0ED91FC9152970995CB1520F4F601EC0FC1
S11303C0F11D8083CF5FCD1748F3E801EF85F889ED
S11303D0309731F0C801099580E003C080E001C086
S11303E080E0DF91CF911F910F91FF90EF90DF900C
S11303F0CF90BF90AF909F900895CF93DF93DC018F
S113040015962C911597222351F01296ED91FC919B
S1130410139719960D90BC91A02D2C91208380DF09
S1130420DF91CF91089582E480937C0084E88093E7
S11304307A00569A559A529A539A519A599808950D
S113044080FF02C05E9A01C05E9881FF02C05D9A7F
S113045001C05D9882FF02C05A9A01C05A9883FF76
S113046002C05B9A01C05B98EAE7F0E08081806497
S11304708083808186FDFDCF809178009091790002
S11304800895CF93DF9300D0CDB7DEB71A821982D7
S113049090E0880F991FE1E0F0E0EC0FFD1FE80FFA
S11304A0F91F6083FE01E80FF91F42832898FE01BB
S11304B03196BE016D5F7F4F57E040E022C08081DE
S11304C090E0022E02C0959587950A94E2F780FF8A
S11304D002C0299A01C029988DE08A95F1F700009D
S11304E05F9A8DE08A95F1F700005F988DE08A9518
S11304F0F1F700002150310910F73196E617F7079C
S113050019F0252F342FDBCF289A0F900F90DF910D
S1130510CF910895209A579A219A28985F9A299AF8
S113052047E06BE080E0ADDF40E069E080E0A9DF18
S113053041E06CE080E0A5DF48E06AE080E0A1DF14
S11305400895E0EDE40FEA3098F09FE9940F9A31B2
S113055018F4E9EAE40F0CC09FEB940F9A3118F4F5
S1130560E9ECE40F05C0403110F0E0E001C0E42FF5
S1130570F0E0ED5EFE4F408184DF0895FC01808150
S11305802FEF3FEF2827022E2295207F2025032ED0
S1130590322F22952F700226269532272327220FE9
S11305A0220F220F20254181C9018427082E82951C
S11305B0807F8025092E982F82958F700826869536
S11305C098278927880F880F880F80254423F9F0FE
S11305D00280F381E02D4150242F30E02F5F3F4F04
S11305E02E0F3F1F41918427082E8295807F8025FE
S11305F0092E982F82958F7008268695982789272B
S1130600880F880F880F8025E217F30759F708959C
S1130610CF93DF93E5E2F1E0C381D481A581B68174
S11306202081277030E023303105C9F124F42230D1
S1130630310551F06CC02430310509F442C0253035
S1130640310509F453C063C0E5E2F1E081818C9384
S1130650828111969C911197981740F416968C916B
S11306601697816016968C93169705C0891718F40F
S113067011968C931197E5E2F1E08081887F836085
S1130680808312964D915C9113970780F085E02D3D
S113069011962C9169818A819B81099538C0E5E284
S11306A0F1E08081887F84608083AD014C5F5F4F7F
S11306B00780F085E02D22E062E0CE0104960995E2
S11306C026C00000CD015ADFE5E2F1E09283818388
S11306D08081887F856080830780F085E02D22E01B
S11306E046E251E062E0CA01099511C091E04091EF
S11306F02601509127012C813D814217530709F4AB
S113070090E0E5E2F1E08081887F892B8083DF91AE
S1130710CF910895E5E2F1E090878783728761873E
S113072008958091250187700895CF93DF93CDB705
S1130730DEB72E970FB6F894DEBF0FBECDBFFE0115
S1130740389627E0DF011D922A95E9F769879B8790
S11307508A8787E0DE01119601900D928A95E1F770
S113076029813A814B815C816D817E818F8190E00A
S11307702E960FB6F894DEBF0FBECDBFDF91CF919A
S113078008951F93CF93DF93CDB7DEB72E970FB69F
S1130790F894DEBF0FBECDBF182FCB01642FC5DF89
S11307A039874A875B876C877D878E871887CE0158
S11307B00896E4DE9D878C8787E0FE013896DE018B
S11307C0119601900D928A95E1F729813A814B8126
S11307D05C816D817E818F8190E02E960FB6F894B6
S11307E0DEBF0FBECDBFDF91CF911F910895CF9390
S11307F0DF93DC01E5E2F1E0C185D28588E093E096
S113080099838883B483A383768365839081987F57
S1130810926090830780F085E02D22E046E251E06B
S113082062E0CD010995DF91CF910895F894FFCF4F
S11308300000000000000000004E004D004C0000CD
S11308400027017E306D79335B5F707F7B771F4EAD
S10708503D4F4700CD
S9030000FC
