:1000000013C02DC02CC06EC02AC076C028C027C027
:1000100026C025C024C023C022C021C020C095C056
:100020001EC01DC01CC01BC011241FBECFEFD2E0DC
:10003000DEBFCDBF11E0A0E0B1E0E6EAF3E002C030
:1000400005900D92A432B107D9F721E0A4E2B1E006
:1000500001C01D92A532B207E1F75FD0A2C1D0CF97
:100060001F93CF93DF93EC01482F4F7061E080E046
:100070007BD1AE01529542954F7045275F70452761
:100080004F7065E080E070D14D2F4F7067E080E0E9
:100090006BD1C0FF02C010E401C010E0C1FF02C07C
:1000A00040E401C040E0C2FD1260C3FD4260C4FDF7
:1000B0001062C5FD4062C6FD1460C7FD4460D0FDFE
:1000C0001061D1FD4061D2FD1860D3FD486063E04E
:1000D00080E0EAD0412F64E080E0E6D0DF91CF916C
:1000E0001F9108951F920F920FB60F9211240F9037
:1000F0000FBE0F901F9018951F920F920FB60F9280
:1001000011248F93489B03C081E0809324018F9139
:100110000F900FBE0F901F901895509A85E0809316
:10012000680081E080936D0008D1C0E0D0E02C9A97
:10013000CE0196DF2C9821968FE19EE40197F1F78E
:1001400000C0000010922401F2CF1F920F920FB650
:100150000F9211242F933F934F935F936F937F934D
:100160008F939F93AF93BF93EF93FF9380E091E0C2
:1001700085D0FF91EF91BF91AF919F918F917F912A
:100180006F915F914F913F912F910F900FBE0F9004
:100190001F9018959F92AF92BF92CF92DF92EF92ED
:1001A000FF920F931F93CF93DF93FC01A480E08015
:1001B000F180B580C280D380DB2DBA1408F4DA2D2B
:1001C000DD2309F44CC0808583708330D9F4A58584
:1001D000B6858C9188238CF0A185B285AA2019F070
:1001E000E701888101C08FEF8C930584F685E02DAF
:1001F0008081806880838EEF35C08C918F778C935F
:10020000C1E001C0C0E08F01CD1700F599249A9498
:10021000F8019085937019F4F8ECFA95F1F7CA1586
:1002200028F4F701EC0FF11D808101C0892DD80160
:100230005196ED91FC9152970995CB1520F4F6015A
:10024000EC0FF11D8083CF5FCD1710F3E801EF8530
:10025000F889309731F0C801099580E003C080E04B
:1002600001C080E0DF91CF911F910F91FF90EF903F
:10027000DF90CF90BF90AF909F900895CF93DF9382
:10028000DC0115962C911597222351F01296ED91D1
:10029000FC91139719960D90BC91A02D2C91208361
:1002A00079DFDF91CF910895CF93DF9300D0CDB761
:1002B000DEB71A82198290E0880F991FE1E0F0E022
:1002C000EC0FFD1FE80FF91F6083FE01E80FF91F17
:1002D00042832898FE013196BE016D5F7F4F57E043
:1002E00040E022C0808190E0022E02C09595879563
:1002F0000A94E2F780FF02C0299A01C029988DE094
:100300008A95F1F700005F9A8DE08A95F1F7000079
:100310005F988DE08A95F1F700002150310910F7C0
:100320003196E617F70719F0252F342FDBCF289ADF
:100330000F900F90DF91CF910895209A579A219AAC
:1003400028985F9A299A47E06BE080E0ADDF40E0B3
:1003500069E080E0A9DF41E06CE080E0A5DF48E0F3
:100360006AE080E0A1DF0895E0EDE40FEA3098F064
:100370009FE9940F9A3118F4E9EAE40F0CC09FEB5F
:10038000940F9A3118F4E9ECE40F05C0403110F0F5
:10039000E0E001C0E42FF0E0ED5EFE4F408184DF3D
:0603A0000895F894FFCF60
:1003A6000000000000000000004E004D004C000060
:1003B6000000007E306D79335B5F707F7B771F4E68
:0403C6003D4F470060
:00000001FF
