S00E00007374617475732E7372656372
S113000013C02DC02CC02BC02AC029C028C027C0B3
S113001026C025C024C023C022C021C020C0C7C020
S11300201EC01DC01CC01BC011241FBECFEFD2E0D8
S1130030DEBFCDBF11E0A0E0B1E0EAE0F5E002C030
S113004005900D92AE30B107D9F721E0AEE0B1E0F2
S113005001C01D92A731B207E1F714D054C2D0CF2A
S1130060DC0115962C91159714966C9114971296A1
S11300704D915C911397E0910E01F0910F018D91D8
S11300809C910994CF93DF93CDB7DEB7CC54D109BB
S11300900FB6F894DEBF0FBECDBF6B9A62E081E06D
S11300A057D0789480E480937C0087E880937A002A
S11300B0699A389A689A26985598279856984FD1ED
S11300C080E2F82EBE016F5D7F4FFB018F2D1192F0
S11300D08A95E9F782E089A383E08AA384E08BA36D
S11300E085E08CA396E0E92EEDA287E08EA342E0A2
S11300F082E0ADD128962FAF289729963FAF299754
S11301002A964FAF2A972B965FAF2B972C966FAFFB
S11301102C972D967FAF2D978E010F5B1F4FF80103
S11301201192EA94E9F7F801F182CE0101969383E2
S1130130828380E390E036D068EC70E08EE091E05A
S113014077D1B801CE01895B9F4FBCD17BD1F9CF68
S11301509091080180FB90F990930801962F937079
S1130160906C9CBD811108C02498239A259A229AE8
S11301708CB580618CBD06C0813021F4249A23980B
S11301802598229862FF03C08DB581608DBD0895C6
S11301900F93022F9A01462FBC0180E091E02CD0EE
S11301A00F91089590930C0180930B0108951F9271
S11301B00F920FB60F9211242F933F934F935F9397
S11301C06F937F938F939F93AF93BF93EF93FF931B
S11301D080E091E03FD0FF91EF91BF91AF919F916B
S11301E08F917F916F915F914F913F912F910F90DC
S11301F00FBE0F901F9018950F93FC01808581FD11
S113020024C0718360834483338322830583842FD2
S1130210041708F4802F8683178280858260808784
S11302206115710549F0442339F00184F285E02D0C
S1130230DB018C9180830BC0808580FD08C0018424
S1130240F285E02D8FEF808303C080E001C08FEF43
S11302500F9108951F93CF93DF93739AFC01208528
S113026021FF30C0EC01A185B2851C9187818F5F8D
S113027087839681891758F080858D7F80870384D2
S1130280F485E02D309789F0CE0109950EC0978151
S11302908481981740F487810190F081E02DE80F64
S11302A0F11D808101C08FEF8C939F818D81981700
S11302B040F4EF81F0E031978A819B81E80FF91FC8
S11302C010837398DF91CF911F910895CF93DF939B
S11302D000D0CDB7DEB71A82198290E0880F991F3B
S11302E0E1E0F0E0EC0FFD1FE80FF91F6083FE0171
S11302F0E80FF91F42834098FE01319642E04E0F09
S113030027E030E0808190E0022E02C09595879529
S11303100A94E2F780FF02C0719A01C0719887ECD9
S113032090E00197F1F700C00000709A87EC90E02C
S11303300197F1F700C00000709887EC90E00197F6
S1130340F1F700C0000021503109E0F631964E1358
S1130350D7CF409A0F900F90DF91CF910895389A9C
S1130360689A699A4098709A719A47E06BE080E0C5
S1130370ADDF40E069E080E0A9DF41E06CE080E0CF
S1130380A5DF48E06AE080E0A1CF8627082E8295A9
S1130390807F8025092E982F82958F700826869558
S11303A098278927880F880F880F802508958091C2
S11303B01001837090E081309105E9F0823091055D
S11303C089F1892BA1F5E0911301F09114012181A8
S11303D042815381E0911101F09112016181828186
S11303E09381E0911501F091160109958091100116
S11303F08C7F81601AC040911301509114014C5FAD
S11304005F4F8091110190911201E0911501F091DB
S1130410160122E062E004960995809110018C7F18
S1130420826003C0809110018B7F80931001089536
S113043027ED31E0FC013183208370931601609332
S1130440150108958091100182FDFCCF0895BF929B
S1130450CF92DF92EF92FF920F931F93CF93DF938C
S113046000D000D000D0CDB7DEB7D82E162FC72EBF
S1130470042F682F8FEF9FEF88DF602F86DFB12E68
S1130480E12EFC2C2E2D2B19201728F4F701619155
S11304907F017BDFF7CF412F5C2DBC012D2D302F49
S11304A080E090E026960FB6F894DEBF0FBECDBF75
S11304B0DF91CF911F910F91FF90EF90DF90CF903C
S11304C0BF900895DC01AB018091100182FD1AC038
S11304D0909110019C7F9093100180911001846091
S11304E080931001B0931201A09311017093140131
S11304F060931301E0911501F091160122E062E08E
S10D0500CD0109940895F894FFCF8B
S111050A0000000000000000004E0000000091
S9030000FC
