:1000000013C02DC02CC02BC02AC029C028C027C0B7
:1000100026C025C024C023C022C021C020C0C7C024
:100020001EC01DC01CC01BC011241FBECFEFD2E0DC
:10003000DEBFCDBF11E0A0E0B1E0E4E7F5E002C033
:1000400005900D92AE30B107D9F721E0AEE0B1E0F6
:1000500001C01D92A731B207E1F714D089C2D0CFF9
:10006000DC0115962C91159714966C9114971296A5
:100070004D915C911397E0910E01F0910F018D91DC
:100080009C910994CF93DF93CDB7DEB7CC54D109BF
:100090000FB6F894DEBF0FBECDBF6B9A62E081E071
:1000A00057D0789480E480937C0087E880937A002E
:1000B000699A389A689A26985598279856983AD106
:1000C00080E2F82EBE016F5D7F4FFB018F2D1192F4
:1000D0008A95E9F782E089A383E08AA384E08BA371
:1000E00085E08CA396E0E92EEDA287E08EA342E0A6
:1000F00082E0BBD128962FAF289729963FAF29974A
:100100002A964FAF2A972B965FAF2B972C966FAFFF
:100110002C972D967FAF2D978E010F5B1F4FF80107
:100120001192EA94E9F7F801F182CE0101969383E6
:10013000828380E390E036D068EC70E08EE091E05E
:1001400085D1B801CE01895B9F4FF2D189D1F9CF1A
:100150009091080180FB90F990930801962F93707D
:10016000906C9CBD81110DC02498239A259A229AE7
:100170008CB580618CBD62FF03C08DB581608DBD83
:1001800008958130C1F7249A239825982298F3CFB7
:100190000F93022F9A01462FBC0180E091E02CD0F2
:1001A0000F91089590930C0180930B0108951F9275
:1001B0000F920FB60F9211242F933F934F935F939B
:1001C0006F937F938F939F93AF93BF93EF93FF931F
:1001D00080E091E043D0FF91EF91BF91AF919F916B
:1001E0008F917F916F915F914F913F912F910F90E0
:1001F0000FBE0F901F9018950F93FC01808581FD15
:1002000022C0718360834483338322830583842FD8
:10021000041780F08683178280858260808761154D
:10022000710511F0411112C0808580FF05C08FEF6C
:100230000F910895802FEECF0184F285E02D8FEF8E
:1002400080830F91089580E00F9108950184F285D5
:10025000E02DDB018C9180838FEFEACF1F93CF934A
:10026000DF93739AFC01208521FF21C0EC010184FA
:10027000F285E02D10818F818F5F8F839E8189179A
:10028000D0F088858D7F8887EB85FC85309711F0CD
:10029000CE0109959F818D81981740F4EF81F0E0A0
:1002A00031978A819B81E80FF91F10837398DF9142
:1002B000CF911F9108959F818C81981740F48F8171
:1002C000A881B981A80FB11D8C918083E3CF8FEFF6
:1002D0008083E0CF4098FC01029647E050E018C0D0
:1002E000719AA7ECB0E01197F1F700C00000709A86
:1002F000A7ECB0E01197F1F700C000007098A7ECF0
:10030000B0E01197F1F700C000004150510960F0D2
:10031000208130E0042E02C0359527950A94E2F73B
:1003200020FDDECF7198DDCF3196E817F907A9F6E9
:10033000409A0895CF93DF9300D0CDB7DEB7389AB7
:10034000689A699A4098709A719A8BE0898387E0DD
:100350008A83CE010196BEDF1A82198289E08983E1
:10036000CE010196B7DF8CE0898381E08A83CE01DC
:100370000196B0DF8AE0898388E08A83CE01019606
:10038000A9DF0F900F90DF91CF910895CF93DF9366
:1003900000D0CDB7DEB720911001237030E02130BE
:1003A0003105B9F12230310551F1232B29F00F909D
:1003B0000F90DF91CF910895FC0120812A838181E4
:1003C0008983E0911301F0911401218142815381CD
:1003D000E0911101F0911201618182819381E0919C
:1003E0001501F09116010995809110018C7F8160B3
:1003F000809310010F900F90DF91CF91089580911D
:1004000010018B7F809310010F900F90DF91CF919F
:10041000089540911301509114014C5F5F4F8091FA
:10042000110190911201E0911501F091160122E065
:1004300062E004960995809110018C7F8260809320
:1004400010010F900F90DF91CF91089526EC31E0CD
:10045000FC01318320837093160160931501089588
:100460008091100182FDFCCF08950F931F93CF93CD
:10047000DF9300D000D000D0CDB7DEB7342FAFEF80
:10048000BFEFA8270A2EA295A07FA0250B2EBA2F7A
:10049000A295AF700A26A695BA27AB27AA0FAA0F76
:1004A000AA0FA025A4270A2EA295A07FA0250B2E77
:1004B000BA2FA295AF700A26A695BA27AB27AA0F26
:1004C000AA0FAA0FA0254423E9F0FB010FEF040FA8
:1004D00010E00F5F1F4F060F171F9191A9270A2EDB
:1004E000A295A07FA0250B2EBA2FA295AF700A2649
:1004F000A695BA27AB27AA0FAA0FAA0FA025E01727
:10050000F10759F77C836B83BE83AD83462F5C81F3
:100510006A2F7E81282F80E090E026960FB6F8940F
:10052000DEBF0FBECDBFDF91CF911F910F91089518
:10053000DC019091100192FD0895809110018C7F53
:100540008093100180911001846080931001B0931A
:100550001201A09311017093140160931301E091B3
:100560001501F091160122E0AB0162E0CD01099482
:04057000F894FFCF2D
:0E0574000000000000000000004E000000002B
:00000001FF
