S00E00007374617475732E7372656372
S113000013C02DC02CC02BC02AC029C028C027C0B3
S113001026C025C024C023C022C021C020C09AC14C
S11300201EC01DC01CC01BC011241FBECFEFD2E0D8
S1130030DEBFCDBF11E0A0E0B1E0ECE4F9E002C026
S113004005900D92A432B107D9F721E0A4E2B1E002
S113005001C01D92AE33B207E1F75CD075C4D0CFB6
S1130060CF92DF92EF92FF920F931F93CF93DF9380
S11300708C01FC01C281C695C695D3818D2F8295D2
S1130080880F880F807CC82BD695D6958AE0E82EF9
S1130090F12CCE01B70131D46B01482F64E080E02C
S11300A073D2C601B70129D4482F63E080E06CD233
S11300B0CE0164E670E021D4CB01B7011ED4482FF1
S11300C065E080E061D2CE0168EE73E016D4CB0126
S11300D0B70113D4482F61E080E056D2F801408183
S11300E0440F66E080E033D2F801418181E04111A0
S11300F001C080E080FB43F9440F440F440F62E0E9
S113010080E0DF91CF911F910F91FF90EF90DF90EE
S1130110CF901DC2CF93DF93CDB7DEB72E970FB626
S1130120F894DEBF0FBECDBF84B7877F84BF8091B4
S113013060008861809360001092600080E4809386
S11301407C0084E880937A002E9A5D9A2F9A5E9AB6
S1130150C0D162E083E0D1D06FE071E080EA91E049
S11301604DD3789410E001E050D380933201823073
S113017008F46AC0A8951111B4C080917C00807FF6
S1130180826080937C0080917A00806480937A00FE
S113019080917A0086FDFCCF80917800909179005F
S11301A0382F330F330F20912B012370232B2093EF
S11301B02B01990F990F8295869586958370892BCB
S11301C080932C0180917C00807F836080937C00ED
S11301D080917A00806480937A0080917A0086FD11
S11301E0FCCF20917800309179002F3E82E03807CF
S11301F008F470C082E090912B019C7F892B80933E
S11302002B0183B186FB882780F980274D9B5EC034
S113021020E0282B93B19095892F881F8827881F69
S1130220880F880F822B4E9B53C090E0892B880F38
S113023090912D01917E892B80932D01E6D280939C
S11302403201823008F096CF813009F44EC080919B
S1130250270190912801A0912901B0912A0180934E
S11302602E0190932F01A0933001B093310111E03E
S113027080912B0190912C01A0912D018093240158
S113028090932501A093260143E064E271E083E0AA
S1130290C0D2288739874A875B876C877D878E879A
S11302A0CE010896E3D244E067E271E08EE1B1D278
S11302B029833A834B835C836D837E838F83BE0162
S11302C06F5F7F4FCE010896DAD24ECF22E0A1CFE6
S11302D098E0ACCF81E02A3F310508F480E08370D8
S11302E08ACF8EE291E0BCDE48CF0000C1CF8EBD44
S11302F00DB407FEFDCF8EB50895282F237090917D
S113030008019C7F922B90930801962F9370906420
S11303109CBD81110EC02498239A259A229A2A9A68
S11303208CB580618CBD62FF03C08DB581608DBDCD
S1130330089580FFF8CF249A239825982298F3CF24
S1130340E0E0F1E0918380836483538342832583D7
S1130350CF0125C01F920F920FB60F9211242F9335
S11303603F934F935F936F937F938F939F93AF9339
S1130370BF93EF93FF9380E091E074D0FF91EF91EE
S1130380BF91AF919F918F917F916F915F914F91A9
S11303903F912F910F900FBE0F901F9018950F93C0
S11303A01F93CF93DF93FC01948185818917C0F556
S11303B0D481808583708330C1F1C0E08F01CD1773
S11303C0D0F01FC00190F081E02DEC0FF11D808171
S11303D0D8015196ED91FC9152970995F8019581B8
S11303E0C91730F40280F381E02DEC0FF11D8083F6
S11303F0CF5FCD1731F0F8018481C81718F38FEF60
S1130400E7CFD8011F96ED91FC915097309711F0EA
S1130410C801099580E0DF91CF911F910F91089554
S1130420D58180858370833041F6A585B6858C910E
S113043087FF05C08C918F778C93C1E0BFCFA185D6
S1130440B2858481882361F0C081D18188818C93B5
S11304500584F685E02D8081806880838EEFDBCF74
S11304608FEFF5CFCF93DF93DC0115962C91159781
S1130470222351F01296ED91FC91139719960D9049
S1130480BC91A02D2C912083DF91CF9188CF4098EF
S1130490FC01029647E050E006C0719A709A709889
S11304A04150510980F0208130E0042E02C035957E
S11304B027950A94E2F720FDF0CF7198709A70980E
S11304C04150510980F73196E817F90719F7409A16
S11304D008951F93CF93DF9300D0CDB7DEB7389A3A
S11304E0689A699A4098709A719A8BE0898387E038
S11304F08A83CE010196CBDF1A82198289E089832F
S1130500CE010196C4DF8CE0898311E01A83CE0109
S11305100196BDDF8AE0898388E08A83CE01019653
S1130520B6DF1A8219821983CE010196B0DF12E078
S11305301A8219821983CE010196A9DF1F5F19302F
S1130540B9F70F900F90DF91CF911F910895CF933A
S1130550DF9300D0CDB7DEB71A82198290E0880FFE
S1130560991FE1E0F0E0EC0FFD1FE80FF91F608335
S1130570FE01E80FF91F4283CE01019688DF0F9038
S11305800F90DF91CF910895CF93DF9300D0CDB733
S1130590DEB790ED940F9A3058F19FE9940F9A3199
S11305A048F09FEB940F9A3148F1403120F1E0E09C
S11305B0F0E003C0E9EAE40FF0E0ED5EFE4F2081D5
S11305C01A82198290E0880F991FE1E0F0E0EC0FA5
S11305D0FD1FE80FF91F6083FE01E80FF91F228356
S11305E0CE01019654DF0F900F90DF91CF910895C3
S11305F0E92FF0E0E2CFE42FF0E0DFCFE9ECE40F05
S1130600F0E0DBCFFC0180812FEF3FEF2827022EA3
S11306102295207F2025032E322F22952F7002262B
S1130620269532272327220F220F220F20254181CE
S1130630C9018427082E8295807F8025092E982F52
S113064082958F700826869598278927880F880FAA
S1130650880F80254423F9F00280F381E02D415076
S1130660242F30E02F5F3F4F2E0F3F1F41918427EF
S1130670082E8295807F8025092E982F82958F7071
S11306800826869598278927880F880F880F802544
S1130690E217F30759F70895CF93DF93C09136011A
S11306A0D0913701A0913801B09139019091330173
S11306B0292F277030E02330310599F1243031059A
S11306C0A9F02230310519F0DF91CF9108951097E8
S11306D009F474C02C91809134012817C9F1987FD2
S11306E0916090933301DF91CF9108950000987F3A
S11306F090933301109789F01496CD91DC9115975E
S1130700CD0180DF21E0C817D90709F445C08091E5
S11307103301887F282B209333010000DF91CF9190
S11307200895987F946090933301209709F455C0FD
S11307301097A1F1AD014C5F5F4FE0913A01F09148
S11307403B0122E062E0CE010496DF91CF9109944F
S11307508091350111969C911197981738F189175A
S113076018F411968C93119780913301887F8360DC
S11307708093330112964D915C911397E0913A0165
S1130780F0913B0111962C91209791F169818A8116
S11307909B81DF91CF91099420E0B9CFE0913A0198
S11307A0F0913B0120E040E050E0CCCF16968C91D4
S11307B01697816016968C931697D6CF987F936080
S11307C090933301209709F47FCFE0913A01F0919F
S11307D03B0120E040E050E0D9CF109709F474CFFA
S11307E0AD014C5F5F4FE0913A01F0913B0122E093
S11307F060E080E090E0DF91CF910994E3E3F1E0E1
S11308009087878372876187089580913301877009
S11308100895CF93DF93CDB7DEB72E970FB6F89434
S1130820DEBF0FBECDBFFE01389697E0DF011D92FB
S11308309A95E9F7888749877B876A8787E0DE018D
S1130840119601900D928A95E1F729813A814B81A5
S11308505C816D817E818F8190E02E960FB6F89435
S1130860DEBF0FBECDBFDF91CF910895CF93DF934D
S1130870EC01C8DE9D838C83DF91CF910895DC0168
S1130880E0913C01F0913D018CE493E091838083FD
S1130890B0933701A0933601709339016093380106
S11308A090913301987F926090933301109791F067
S11308B0E0913A01F0913B01672B31F022E044E3EF
S11308C051E062E0CD01099420E040E050E062E0B4
S11308D0CD010994672B59F0E0913A01F0913B0165
S11308E022E044E351E060E080E090E00994987FE6
S11308F09160909333018BEF089597FB072E16F4C4
S1130900009406D077FD08D00BD007FC05D03EF448
S1130910909581959F4F0895709561957F4F0895A7
S1130920AA1BBB1B51E107C0AA1FBB1FA617B70711
S113093010F0A61BB70B881F991F5A95A9F780952D
S10F09409095BC01CD010895F894FFCF00
S113094C0000000000000000004E004D004C0000B0
S113095C0077017E306D79335B5F707F7B771F4E40
S107096C3D4F4700B0
S9030000FC
