S00E00007374617475732E7372656372
S113000013C02DC02CC02BC02AC029C028C027C0B3
S113001026C025C024C023C022C021C020C059C18D
S11300201EC01DC01CC01BC011241FBECFEFD2E0D8
S1130030DEBFCDBF11E0A0E0B1E0E8EBF8E002C024
S113004005900D92A432B107D9F721E0A4E2B1E002
S113005001C01D92AF32B207E1F756D02BC4D0CF06
S1130060CF92DF92EF92FF920F931F93CF93DF9380
S11300708C01FC01C281C695C695D3818D2F8295D2
S1130080880F880F807CC82BD695D6958AE0E82EF9
S1130090F12CCE01B701E7D36B01482F64E080E077
S11300A033D2C601B701DFD3482F63E080E02CD2FE
S11300B0CE0164E670E0D7D3CB01B701D4D3482F87
S11300C065E080E021D2CE0168EE73E0CCD3CB01B1
S11300D0B701C9D3482F61E080E016D2F80140810E
S11300E0440F66E080E0F3D1F8014181440F440FEE
S11300F0440F62E080E0DF91CF911F910F91FF9058
S1130100EF90DF90CF90E3C1CF93DF93CDB7DEB70D
S113011066970FB6F894DEBF0FBECDBF80E4809320
S11301207C0084E880937A002E9A5D9A2F9A5E9AD6
S1130130A2D11B8A1C8A1D8A1F86188A198A1A8AC8
S113014062E083E086D06FE071E08FE591E0E3D276
S1130150789411E080917C00807F826080937C00A1
S113016080917A00806480937A0080917A0086FD81
S1130170FCCF8091780090917900382F330F330FA2
S11301802B892370232B2B8B990F990F829586959E
S113019086958370892B8C8B83B186FB882780F9A5
S11301A081274D9B44C020E0282B93B19095892F43
S11301B0881F8827881F880F880F822B4E9B39C081
S11301C090E0892B880F9D89917E892B8D8BAAD2F3
S11301D08E8B8E89882329F08E89813011F01A9BA9
S11301E0B9CF8E89882339F18E89813051F143E06A
S11301F0BE016D5E7F4F8AE099D2288739874A878E
S11302005B876C877D878E8764E0CE010F96E1D291
S113021029833A834B835C836D837E838F833BD0B6
S1130220BE016F5F7F4FCE010896FFD293CF22E0CD
S1130230BBCF98E0C6CFCE010F9612DF8E898130F6
S1130240B1F60000D4CF8EBD0DB407FEFDCF8EB540
S11302500895282F2370909108019C7F922B9093EE
S11302600801962F937090649CBD81110DC0249851
S1130270239A259A229A8CB580618CBD62FF03C0B3
S11302808DB581608DBD089580FFF8CF249A2398A1
S113029025982298F3CF80910801837041F08CB5A2
S11302A0837080648CBD8EB58FEF8EBD08958CB540
S11302B0837080658CBD8EB58FEF8EBD0895E0E0B0
S11302C0F1E0918380836483538342832583CF0148
S11302D025C01F920F920FB60F9211242F933F93B4
S11302E04F935F936F937F938F939F93AF93BF933A
S11302F0EF93FF9380E091E07FD0FF91EF91BF9166
S1130300AF919F918F917F916F915F914F913F91A9
S11303102F910F900FBE0F901F901895AF92BF9220
S1130320CF92DF92EF92FF920F931F93CF93DF93BD
S1130330FC01A480E080F180D581C280D380BD2EF1
S1130340DA1508F4BA2CBB2039F18F01808583704B
S1130350833071F1C0E013C0F701EC0FF11D80810F
S1130360D8015196ED91FC9152970995CD1720F43F
S1130370F601EC0FF11D8083CF5FCB1521F0CA1578
S113038058F38FEFEDCFD8011F96ED91FC91509764
S1130390309711F0C801099580E0DF91CF911F914A
S11303A00F91FF90EF90DF90CF90BF90AF900895A2
S11303B00584F685E02D808187FF08C080818F77D2
S11303C08083B1E0BB15F8F6C1E0D9CFD801199606
S11303D0ED91FC911A97AA2069F0D7018C91808342
S11303E0D8011D96ED91FC911E97808180688083D1
S11303F08EEFD3CF8FEFF3CFCF93DF93DC0115963E
S11304002C911597222351F01296ED91FC9113979C
S113041019960D90BC91A02D2C912083DF91CF9142
S11304207DCF4098FC01029647E050E012C0719ADB
S11304302DE02A95F1F70000709A2DE02A95F1F746
S1130440000070982DE02A95F1F700004150510901
S113045060F0208130E0042E02C0359527950A947F
S1130460E2F720FDE4CF7198E3CF3196E817F9075E
S1130470D9F6409A0895CF93DF9300D0CDB7DEB775
S1130480389A689A699A4098709A719A8BE089832D
S113049087E08A83CE010196C4DF1A82198289E03B
S11304A08983CE010196BDDF8CE0898381E08A8354
S11304B0CE010196B6DF8AE0898388E08A83CE0183
S11304C00196AFDF0F900F90DF91CF910895CF93F6
S11304D0DF9300D0CDB7DEB71A82198290E0880F7F
S11304E0991FE1E0F0E0EC0FFD1FE80FF91F6083B6
S11304F0FE01E80FF91F4283CE01019692DF0F90AF
S11305000F90DF91CF910895CF93DF9300D0CDB7B3
S1130510DEB790ED940F9A3058F19FE9940F9A3119
S113052048F09FEB940F9A3148F1403120F1E0E01C
S1130530F0E003C0E9EAE40FF0E0ED5EFE4F208155
S11305401A82198290E0880F991FE1E0F0E0EC0F25
S1130550FD1FE80FF91F6083FE01E80FF91F2283D6
S1130560CE0101965EDF0F900F90DF91CF91089539
S1130570E92FF0E0E2CFE42FF0E0DFCFE9ECE40F85
S1130580F0E0DBCFFC0180812FEF3FEF2827022E24
S11305902295207F2025032E322F22952F700226AC
S11305A0269532272327220F220F220F202541814F
S11305B0C9018427082E8295807F8025092E982FD3
S11305C082958F700826869598278927880F880F2B
S11305D0880F80254423F9F00280F381E02D4150F7
S11305E0242F30E02F5F3F4F2E0F3F1F4191842770
S11305F0082E8295807F8025092E982F82958F70F2
S11306000826869598278927880F880F880F8025C4
S1130610E217F30759F70895A0912701B091280133
S1130620E0912901F0912A0190912401292F27704A
S113063030E02330310509F456C094F124303105FB
S1130640C1F02530310509F065C081E040912501F4
S11306505091260114962D913C91159742175307FA
S113066009F455C090912401987F892B809324012B
S113067008950000CF0186DF909326018093250121
S113068080912401887F856080932401E0912B016F
S1130690F0912C0122E045E251E062E0CA010994A4
S11306A022303105B1F580912501808380912601A6
S11306B02181281740F1821710F48183282F80911B
S11306C02401887F83608093240142815381E091D7
S11306D02B01F0912C0111966C91119712968D912A
S11306E09C9113970994987F946090932401AF018F
S11306F04C5F5F4FE0912B01F0912C0122E062E00E
S1130700CD0104960994868181608683D8CF80E0E8
S1130710A9CF08950895E4E2F1E090878783728772
S1130720618708958091240187700895CF93DF93A2
S1130730CDB7DEB76C970FB6F894DEBF0FBECDBF52
S11307409E01285F3F4F97E0F90111929A95E9F7CE
S113075049877B876A8797E0F901DE01119601904A
S11307600D929A95E1F74A837C836B8397E0FE01AF
S11307703196D90101900D929A95E1F749877B87CB
S11307806A8797E0F901DE01569601900D929A95D9
S1130790E1F78E8BCE014696F5DE9B8F8A8F87E03C
S11307A0FE017696DE011F9601900D928A95E1F77F
S11307B02F85388949895A896B897C898D8990E08C
S11307C06C960FB6F894DEBF0FBECDBFDF91CF910C
S11307D00895CF93DF93CDB7DEB72E970FB6F89475
S11307E0DEBF0FBECDBFFE01389627E0DF011D92AC
S11307F02A95E9F769879B878A8787E0DE01119646
S113080001900D928A95E1F729813A814B815C81AF
S11308106D817E818F8190E02E960FB6F894DEBFB5
S11308200FBECDBFDF91CF910895CF93DF93DC014D
S1130830E4E2F1E0C185D2858CE093E0998388837A
S1130840B483A383768365839081987F9260908339
S11308500780F085E02D22E045E251E062E0CD0121
S1130860DF91CF91099497FB072E16F4009406D0DC
S113087077FD08D00BD007FC05D03EF49095819508
S11308809F4F0895709561957F4F0895AA1BBB1BD8
S113089051E107C0AA1FBB1FA617B70710F0A61B7C
S11308A0B70B881F991F5A95A9F780959095BC019D
S10B08B0CD010895F894FFCF77
S11308B80000000000000000004E004D004C000045
S11308C80023017E306D79335B5F707F7B771F4E29
S10708D83D4F470045
S9030000FC
