:1000000013C02DC02CC080C02AC029C028C027C062
:1000100026C025C024C023C022C021C020C004C1E6
:100020001EC01DC01CC01BC011241FBECFEFD2E0DC
:10003000DEBFCDBF11E0A0E0B1E0EAE5F7E002C02D
:1000400005900D92A632B107D9F721E0A6E2B1E002
:1000500001C01D92A133B207E1F789D07CC3D0CF94
:10006000CF92DF92EF92FF920F931F93CF93DF9384
:100070008C01FC01C281C695C695D3818D2F8295D6
:10008000880F880F807CC82BD695D6958AE0E82EFD
:10009000F12CCE01B70128D26B01482F64E080E03B
:1000A000DED1C601B70120D2482F63E080E0D7D16E
:1000B000CE0164E670E018D2CB01B70115D2482F0B
:1000C00065E080E0CCD1CE0168EE73E00DD2CB01CB
:1000D000B7010AD2482F61E080E0C1D1F801408128
:1000E000440F66E080E09ED1F8014181440F440F47
:1000F000440F62E080E0DF91CF911F910F91FF905C
:10010000EF90DF90CF908EC11F920F920FB60F929B
:1001100011240F900FBE0F901F90189587E88093C1
:100120007A0020E030E080E061E070E0922F90649F
:1001300090937C0090917A00906490937A009091D3
:100140007A0096FDFCCF409178005091790041FFF4
:1001500007C0AB01022E01C0440F0A94EAF7842BBA
:100160002F5F3F4F2730310509F790E029C2CF9329
:10017000DF9300D000D0CDB7DEB76B9ACFDF81E040
:100180008093680084E080936B0080E480937C001F
:1001900084E880937A0026982E9A55985D9A27983D
:1001A0002F9A56985E9A12D119821A821B821C824B
:1001B00063E171E08AE091E090D180E184B92C9A0A
:1001C000CE0101964DDF2C982B81422F4695469506
:1001D0003C81532F5295550F550F507C852F842B02
:1001E000932F9695969501969F73382F330F330F63
:1001F0002370232B2B83990F990F829586958695D3
:100200008370892B8C838FE19EE40197F1F700C006
:100210000000D5CFE4E0F1E09183808364835383D1
:1002200042832583CF0125C01F920F920FB60F92F4
:1002300011242F933F934F935F936F937F938F93EB
:100240009F93AF93BF93EF93FF9384E091E087D0A8
:10025000FF91EF91BF91AF919F918F917F916F919E
:100260005F914F913F912F910F900FBE0F901F9074
:1002700018950F931F93CF93DF93DC0114965C9135
:1002800014976D917C91119715963C911597129644
:100290000D911C911397432F351708F4452F4423D4
:1002A00081F118968C91189783708330B1F120E01A
:1002B00018968C911897837061F1251740F5FB0112
:1002C000E20FF11D80811B96ED91FC911C97199610
:1002D000CD91DC911A978883908197FFFDCF88811B
:1002E000231720F4F801E20FF11D80832F5F241300
:1002F000DFCF1F96ED91FC915097309711F0CD0113
:10030000099580E0DF91CF911F910F9108958FEFB4
:10031000DACFD8ECDA95F1F7D0CF1D96ED91FC91BC
:100320001E97808187FF07C080818F77808342304E
:1003300000F321E0BDCF1996ED91FC911A9755235A
:1003400061F0EB01888180831D96ED91FC911E97F1
:100350008081806880838EEFD5CF8FEFF4CFCF93ED
:10036000DF93DC0115962C911597222351F01296FC
:10037000ED91FC91139719960D90BC91A02D2C91A5
:100380002083DF91CF9175CF4098FC01029647E022
:1003900050E006C0719A709A70984150510980F0EF
:1003A000208130E0042E02C0359527950A94E2F7AB
:1003B00020FDF0CF7198709A70984150510980F7E4
:1003C0003196E817F90719F7409A0895CF93DF930C
:1003D00000D0CDB7DEB7389A689A699A4098709A7B
:1003E000719A8BE0898387E08A83CE010196CCDF06
:1003F0001A82198289E08983CE010196C5DF8CE0DB
:10040000898381E08A83CE010196BEDF8AE08983F9
:1004100088E08A83CE010196B7DF0F900F90DF91BD
:10042000CF910895CF93DF9300D0CDB7DEB71A8276
:10043000198290E0880F991FE1E0F0E0EC0FFD1FBA
:10044000E80FF91F6083FE01E80FF91F4283CE0118
:1004500001969ADF0F900F90DF91CF910895CF937F
:10046000DF9300D0CDB7DEB790ED940F9A3058F1FE
:100470009FE9940F9A3148F09FEB940F9A3148F11D
:10048000403120F1E0E0F0E003C0E9EAE40FF0E001
:10049000EB5EFE4F20811A82198290E0880F991F2F
:1004A000E1E0F0E0EC0FFD1FE80FF91F6083FE01B3
:1004B000E80FF91F2283CE01019666DF0F900F909F
:1004C000DF91CF910895E92FF0E0E2CFE42FF0E043
:1004D000DFCFE9ECE40FF0E0DBCFE6E2F1E090877C
:1004E000878372876187089597FB072E16F400941F
:1004F00006D077FD08D00BD007FC05D03EF49095D0
:1005000081959F4F0895709561957F4F0895AA1B1F
:10051000BB1B51E107C0AA1FBB1FA617B70710F0EE
:10052000A61BB70B881F991F5A95A9F78095909520
:10053000BC01CD010895A0E0B0E0E0EAF2E08AC09D
:10054000EC01688179818A819B8161157105810542
:10055000910521F464E279ED8BE597E02DE133EF2D
:1005600041E050E038D049015A0127EA31E440E047
:1005700050E04DD069017A01C501B4012CEE34EF91
:100580004FEF5FEF44D0022F132F9A01D701C6011E
:10059000800F911FA21FB31FB7FF03C00197A109CE
:1005A000B04888839983AA83BB839F77CDB7DEB792
:1005B000ECE06CC0C0DF089580E091E0BCDF0895FE
:1005C000A0E0B0E08093000190930101A0930201AC
:1005D000B09303010895052E97FB16F400940FD0F5
:1005E00057FD05D068D007FC02D046F408C05095EE
:1005F0004095309521953F4F4F4F5F4F089590950F
:100600008095709561957F4F8F4F9F4F08956894A7
:100610000013E894A0E0B0E0EFE0F3E01DC0EFEFDE
:10062000E7F959016A015E23550FEE08FE2C870198
:100630009B01AC019E23990F660B762FCB015DD0F9
:10064000CDB7DEB7EAE024C02F923F924F925F927F
:100650006F927F928F929F92AF92BF92CF92DF92D2
:10066000EF92FF920F931F93CF93DF93CDB7DEB737
:10067000CA1BDB0B0FB6F894DEBF0FBECDBF0994CB
:100680002A88398848885F846E847D848C849B8422
:10069000AA84B984C884DF80EE80FD800C811B8130
:1006A000AA81B981CE0FD11D0FB6F894DEBF0FBE5F
:1006B000CDBFED010895A1E21A2EAA1BBB1BFD01BF
:1006C0000DC0AA1FBB1FEE1FFF1FA217B307E40731
:1006D000F50720F0A21BB30BE40BF50B661F771F89
:1006E000881F991F1A9469F7609570958095909569
:1006F0009B01AC01BD01CF010895DF93CF939F9281
:10070000A0E49A2E0024D001E001F001169507958F
:10071000F794E794D794C794B794A79448F41068D3
:10072000A20FB31FC41FD51FE61FF71F081E191EF7
:10073000220F331F441F551F661F771F881F991FE5
:100740009A9421F79D01AE01BF01C00111249F9031
:0A075000CF91DF910895F894FFCFD8
:10075A00010000000000000000000000004E004DF3
:10076A00004C0000007E306D79335B5F707F7B77D1
:06077A001F4E3D4F470039
:00000001FF
