:100000000C945A000C9477000C9477000C947700B1
:100010000C9477000C9477000C9477000C94770084
:100020000C9477000C9477000C9477000C94770074
:100030000C9477000C9477000C9477000C94770064
:100040000C9477000C9418010C9477000C947700B2
:100050000C9477000C9477000C9477000C94770044
:100060000C9477000C9477000C9477000C94770034
:100070000C9477000C9477000C9477000C94770024
:100080000C9477000C9477000C9477000C94770014
:100090000C9477000C9477000C9477000C943E013C
:1000A0000C9477000C9477000C9477000C947700F4
:1000B0000C94770011241FBECFEFD8E0DEBFCDBF78
:1000C00011E0A0E0B1E0EEE7F5E002C005900D928E
:1000D000AA31B107D9F721E0AAE1B1E001C01D9230
:1000E000A332B207E1F70E948C000C94BD020C947D
:1000F0000000DC0115962C91159714966C911497BD
:1001000012964D915C911397E0911A01F0911B01A9
:100110008D919C9109950895CF93DF93CDB7DEB76C
:1001200063970FB6F894DEBF0FBECDBF6A9A3A9AB6
:100130003B9A729A429A439A63E080E00E94EB00F5
:10014000789419821A821B821C828B8183708C6E38
:100150008B8381E08C831D821E821F8244E0BE015E
:100160006F5F7F4F80E00E944202288739874A876D
:100170005B876C877D87FE013E9686E0DF011D92DE
:100180008A95E9F783E08F87CE010596998B888B56
:1001900089E790E00E94130168E071E08AE191E054
:1001A0000E943202729842984398BE01625F7F4F6C
:1001B000CE0108960E94A5020E943C02729A429AC1
:1001C000439ABFEF21EE84E0B15020408040E1F738
:1001D00000C00000E7CFE8E0F1E0908180FB90F9FB
:1001E0009083962F9370906C9093AC00811108C00F
:1001F0006B9A399A6A9AECEAF0E080818061808398
:1002000062FF05C0EDEAF0E080818160808308959F
:100210000F93022F9A01462FBC0180E091E00E94CB
:1002200064010F91089590930C0180930B01089540
:100230001F920F920FB60F9211242F933F934F935B
:100240005F936F937F938F939F93AF93BF93EF933E
:10025000FF938DE091E00E949301FF91EF91BF9198
:10026000AF919F918F917F916F915F914F913F914E
:100270002F910F900FBE0F901F9018951F920F9205
:100280000FB60F9211242F933F934F935F936F9369
:100290007F938F939F93AF93BF93EF93FF9380E0F0
:1002A00091E00E949301FF91EF91BF91AF919F91D7
:1002B0008F917F916F915F914F913F912F910F900F
:1002C0000FBE0F901F9018950F93FC01808581FD44
:1002D00025C0718360834483338322830583842F05
:1002E000401708F4802F868317828085826080877C
:1002F0006115710551F0442341F00184F285E02D30
:10030000DB018C9180838FEF0CC0808580FD08C05D
:100310000184F285E02D8FEF808303C080E001C06F
:100320008FEF0F9108951F93CF93DF93FC012085EA
:1003300021FF36C0EC010184F285E02D10818F8110
:100340008F5F8F839E81891750F088858D7F888786
:10035000EB85FC853097C1F0CE01099515C087EC7F
:1003600090E00197F1F700C00000E985FA859F81D0
:100370008C81981738F48F81A881B981A80FB11D9D
:100380008C9101C08FEF80839F818D81981740F4FD
:10039000EF81F0E031978A819B81E80FF91F10838C
:1003A000DF91CF911F9108950F931F93CF93DF9308
:1003B00000D0CDB7DEB720911C01237030E0213092
:1003C000310549F12230310509F440C0232B09F0F1
:1003D00042C0DC012C912A8311968C9189830CE117
:1003E00011E0D8011396ED91FC911497218142817F
:1003F00053811196ED91FC911297618182819381D5
:100400001596ED91FC9116970995F80180818C7FE6
:100410008160808320C00CE111E0D80113964D91DA
:100420005C9114974C5F5F4F11968D919C91129740
:100430001596ED91FC91169722E062E004960995DD
:10044000F80180818C7F8260808305C0ECE1F1E05F
:1004500080818B7F80830F900F90DF91CF911F91D0
:100460000F91089524ED31E0FC01318320837093D6
:100470002201609321010895ECE1F1E0808182FD89
:10048000FDCF08950F931F93CF93DF9300D000D03B
:1004900000D0CDB7DEB7342FAFEFBFEFA8270A2EBD
:1004A000A295A07FA0250B2EBA2FA295AF700A2689
:1004B000A695BA27AB27AA0FAA0FAA0FA025A42793
:1004C0000A2EA295A07FA0250B2EBA2FA295AF7061
:1004D0000A26A695BA27AB27AA0FAA0FAA0FA0250E
:1004E0004423E9F0FB010FEF040F10E00F5F1F4FF3
:1004F000060F171F9191A9270A2EA295A07FA0256C
:100500000B2EBA2FA295AF700A26A695BA27AB2755
:10051000AA0FAA0FAA0FA025E017F10759F77C83AD
:100520006B83BE83AD83462F5C816A2F7E81282F2B
:1005300080E090E026960FB6F894DEBF0FBECDBFE8
:10054000DF91CF911F910F91089520911C0122FD01
:1005500013C0AB01ECE1F1E020812C7F20832081EE
:100560002460208392838183748363830580F68172
:0E057000E02D22E062E009950895F894FFCF97
:10057E00000000000000000000AE000000000000BF
:0A058E000000000000004E00000015
:00000001FF
