S0120000636F6E74726F6C6C65722E73726563CE
S11300000C945A000C9477000C9477000C947700AD
S11300100C9477000C9477000C9477000C94770080
S11300200C9477000C9477000C9477000C94770070
S11300300C9477000C9477000C9477000C94770060
S11300400C9477000C9477000C9477000C94770050
S11300500C9477000C9477000C9477000C94770040
S11300600C9477000C9477000C9477000C94770030
S11300700C9477000C9477000C9477000C94770020
S11300800C9477000C9477000C9477000C94770010
S11300900C9477000C9477000C9477000C94770000
S11300A00C9477000C9477000C9477000C947700F0
S11300B00C94770011241FBECFEFD8E0DEBFCDBF74
S11300C011E0A0E0B1E0EAE4FAE002C005900D928C
S11300D0A632B107D9F721E0A6E2B1E001C01D9232
S11300E0AB35B207E1F70E94F1000C9423050C94A0
S11300F000000E9425010E94C701FC0190914D015E
S113010091FB882780F9ABE3B1E02C9180FB22F9C5
S113011093FB332730F92E7F92959170232B90FB1C
S113012021F92C939081969596952181822F829521
S1130130880F880F807C892BECE3F1E0382F330F94
S1130140330F90819370932B90832C7F82958695A7
S113015086958370822B81838AE391E00E94CA0191
S113016080914B01807E21E0803609F020E0EFE2AF
S1130170F1E0918120FB90F9918321E0803409F032
S113018020E0EFE2F1E0908120FB97F9908321E0F9
S1130190803C09F020E0EFE2F1E0918120FB93F94B
S11301A0918321E0803A09F020E0EFE2F1E09181CF
S11301B020FB92F9918321E0803809F020E0EFE2FE
S11301C0F1E0918120FB91F9918391E0811190E01C
S11301D0EFE2F1E0808190FB86F980830E94EF01D9
S11301E008950E9405010E94D80186E291E00E94D0
S11301F0C2010E9479002FEF80E792E021508040F5
S11302009040E1F700C00000F4CF63E080E00E947A
S11302102F028DE692E00E94820448E06AE080E0CA
S11302200E9493044FEF5FEF60E080E00E94BC0403
S11302304FEF5FEF60E081E00E94BC044FEF5FEF9F
S113024060E082E00E94BC0408950F931F93CF9353
S1130250DF9300D0CDB7DEB762E180E00E94E7040F
S11302609A83898389819A8109E411E0D8018C9366
S1130270EAE4F1E09F708081807F892B808329816B
S11302803A81932F907F8F70892B808362E181E084
S11302900E94E7049A83898389819A81EBE4F1E0DF
S11302A08295880F807E20812F71282B208389815D
S11302B09A81892F8F71D80114968C9389819A81A0
S11302C096958795929582958F7089279F70892737
S11302D0982F9770822F887F892B808329813A8178
S11302E0329522952F7023273F70232720FB83F913
S11302F0808389819A81991F9927991FECE4F1E001
S1130300808190FB80F9808329813A8124E0329FA7
S1130310212D3327112420FB81F9808329813A81FF
S113032035FB992790F990FB82F9808362E182E0A2
S11303300E94E7049A83898389819A81EEE4F1E03B
S11303408F709081907F892B808329813A813295A7
S113035022952F7023273F7023272295207F8F70AB
S1130360822B80830F900F90DF91CF911F910F917B
S11303700895EFECF7E03197F1F700C000000E9418
S1130380250208959093460180934501089582E4DF
S113039091E00895FC0180819181A281B3818093D1
S11303A03E0190933F01A0934001B0934101089511
S11303B06A9A3A9A3B9A729A429A439A63E080E024
S11303C00E944B0289EB91E09093120180931101FA
S11303D06FE071E089E792E00E94FB030895CF93F8
S11303E0DF93CDB7DEB727970FB6F894DEBF0FBE05
S11303F0CDBF4298609145017091460144E182E08D
S11304000E94060429833A834B835C836D837E8335
S11304108F83CE0101960E94330460E070E0CE0128
S113042001960E943D04429A0E94020427960FB648
S1130430F894DEBF0FBECDBFDF91CF9108958EBD7E
S11304400DB407FEFDCF8EB508958093AE00EDEA9E
S1130450F0E080818823ECF78091AE000895282F86
S11304602370EBE1F1E090819C7F922B90838111CA
S113047007C0239A259A229A2A9A8CB580618CBD4A
S113048062FF03C08DB581608DBD8CB580646370DF
S1130490682B6CBD0895282F2370E8E0F1E090816B
S11304A09C7F922B9083811109C06B9A399A6A9A26
S11304B0729AECEAF0E080818061808362FF05C07B
S11304C0EDEAF0E0808181608083ECEAF0E08081F5
S11304D080646370682B60830895E3E1F1E09183A5
S11304E080836483538342832583CF010E948502E2
S11304F00895E0E0F1E09183808364835383428331
S11305002583CF010E9485020895FF920F931F93C4
S1130510CF93DF93FC0194818581891710F4D481F2
S113052001C0D581808583708330E9F4A585B685C3
S11305308C9188239CF0A185B2858481882321F045
S1130540C081D181888101C08FEF8C930584F685A9
S1130550E02D8081806880838EEF37C08C918F7707
S11305608C93C1E001C0C0E08F01CD1710F5FF24CA
S1130570FA94D80114968C911497C81730F4ED911D
S1130580FC91EC0FF11D808101C08F2DD801519693
S1130590ED91FC9152970995F8019581C91730F4B2
S11305A00280F381E02DEC0FF11D8083CF5FCD1726
S11305B000F3D8011F96ED91FC915097309721F0EC
S11305C0C801099580E001C080E0DF91CF911F91BF
S11305D00F91FF900895FC0180812FEF3FEF2827B2
S11305E0022E2295207F2025032E322F22952F7054
S11305F00226269532272327220F220F220F202599
S11306004181C9018427082E8295807F8025092E87
S1130610982F82958F700826869598278927880FAA
S1130620880F880F80254423F9F00280F381E02DA0
S11306304150242F30E02F5F3F4F2E0F3F1F419139
S11306408427082E8295807F8025092E982F8295F5
S11306508F700826869598278927880F880F880F1A
S11306608025E217F30759F70895CF93DF93E0E568
S1130670F1E0C381D481A581B6812081277030E067
S11306802330310509F44EC02430310509F47DC00E
S11306902230310509F0ACC0109701F19C91809192
S11306A05101981729F08081887F81608083A0C0E0
S11306B08091520111969C911197981740F41696C7
S11306C08C911697816016968C9316977AC0891729
S11306D008F077C011968C93119773C0E0E5F1E0B0
S11306E08081887F83608083209781F481C0129603
S11306F04D915C911397E0915701F0915801119637
S11307002C9169818A819B81099572C0E09157017E
S1130710F091580120E040E050E069818A819B819A
S1130720099566C0E0E5F1E08081887F846080837C
S1130730209779F01097E9F0AD014C5F5F4FE0919D
S11307405701F091580122E062E0CE010496099528
S11307504FC0109709F44CC0AD014C5F5F4FE0915E
S11307605701F091580122E060E080E090E00995A3
S11307703FC0E0915701F091580120E040E050E083
S113078062E0CE010496099533C00000E0E5F1E093
S11307908081887F8083109791F01496CD91DC91AD
S11307A01597CD010E94EB0221E0C817D90709F47F
S11307B020E0E0E5F1E08081887F822B80830000E7
S11307C017C0E0E5F1E08081887F83608083209713
S11307D009F08DCF12964D915C911397E0915701DA
S11307E0F091580111962C9160E080E090E0099519
S11307F0DF91CF910895E0E5F1E0908787837287D8
S1130800618708958091500187700895CF93DF9395
S1130810CDB7DEB72E970FB6F894DEBF0FBECDBFAF
S1130820FE01389697E0DF011D929A95E9F78887D3
S113083049877B876A8787E0DE01119601900D92D4
S11308408A95E1F729813A814B815C816D817E81B2
S11308508F8190E02E960FB6F894DEBF0FBECDBF09
S1130860DF91CF910895CF93DF93EC010E94EB02C7
S11308709D838C83DF91CF910895CF93DF93DC0127
S1130880E0E5F1E0C185D28585E393E0998388832F
S1130890B483A383768365839081987F92609083E9
S11308A0109769F0672BC9F0E0915701F091580156
S11308B022E041E551E062E0CD01099520C0672BBB
S11308C0B9F0E0915701F091580122E041E551E07F
S11308D060E080E090E0099512C0E0915701F0914A
S11308E0580120E040E050E062E0CD01099507C0E6
S11308F0E0E5F1E08081887F816080838BEFDF9188
S1130900CF91089524B1256024B927B1246127B972
S113091025B1256025B928B1246128B990934801EF
S1130920809347010895CF93DF9300D01F92CDB7F2
S1130930DEB795B19A7F95B998B19B7E98B98770C7
S1130940880F806489836A834B83E0914701F09127
S1130950480120E040E050E063E0CE0101960995B3
S113096085B1856085B988B1846188B90F900F908D
S11309700F90DF91CF910895CF93DF9300D000D0F3
S1130980CDB7DEB795B19A7F95B998B19B7E98B9EA
S11309908770880F806489836A834B835C83E091CA
S11309A04701F091480120E040E050E064E0CE01CE
S11309B00196099585B1856085B988B1846188B946
S11309C00F900F900F900F90DF91CF910895CF93D8
S11309D0DF93CDB7DEB728970FB6F894DEBF0FBE0E
S11309E0CDBF95B19A7F95B998B19B7E98B9877020
S11309F0880F816489836A831B821C821D821E8204
S1130A001F821886E0914701F091480124E0AE016D
S1130A104B5F5F4F64E0CE010196099585B1856017
S1130A2085B988B1846188B98F8190E0982F88272F
S1130A302885822B28960FB6F894DEBF0FBECDBF53
S10D0A40DF91CF910895F894FFCFE1
S1130A4A000000000000000000AE00AD00AC000091
S1130A5A0025020000000000000000004E004D00C6
S1090A6A4C0000001F0215
S9030000FC
