:100000000C945A000C9477000C9477000C947700B1
:100010000C9477000C9477000C9477000C94770084
:100020000C9477000C9477000C9477000C94770074
:100030000C9477000C9477000C9477000C94770064
:100040000C9477000C9477000C9477000C94770054
:100050000C9477000C9477000C9477000C94770044
:100060000C9477000C9477000C9477000C94770034
:100070000C9477000C9477000C9477000C94770024
:100080000C9477000C9477000C9477000C94770014
:100090000C9477000C9477000C9477000C94770004
:1000A0000C9477000C9477000C9477000C947700F4
:1000B0000C94770011241FBECFEFD8E0DEBFCDBF78
:1000C00011E0A0E0B1E0EEEAF6E002C005900D928A
:1000D000A432B107D9F721E0A4E2B1E001C01D923A
:1000E000A633B207E1F70E9479000C9455030C94F3
:1000F00000000E948D000E94A4008FE39CE90197FC
:10010000F1F700C00000F7CFEFEAF4E03197F1F724
:1001100000C000000E94550108956A9A3A9A3B9ADD
:10012000729A429A439A63E080E00E945F0184E8F9
:1001300090E090931B0180931A0168E171E081E8DF
:1001400091E00E94C7020895EF92FF921F93CF9310
:10015000DF93CDB7DEB761970FB6F894DEBF0FBE61
:10016000CDBF4298439844E064E271E081E00E9490
:10017000FE02288739874A875B876C877D878E8751
:1001800063E0CE010F960E94D20229833A834B830B
:100190005C836D837E838F83BE016F5F7F4FCE0153
:1001A00008960E943603429A439A0E94CE02811119
:1001B00015C0898986958F7090E004977CF48F85AF
:1001C000988990932701809326018F859889A98922
:1001D0008093280190932901A0932A018FE99FE041
:1001E0000197F1F700C0000010912A0116951F70C9
:1001F000E12FF0E0EE0FFF1FE45EFE4FE080F180A4
:1002000091E080910001181301C090E0F701818115
:1002100090FB84F981837298429842E0B70182E0B2
:100220000E94FE02288739874A875B876C877D8713
:100230008E8762E0CE010F960E94D20229833A8314
:100240004B835C836D837E838F83BE016F5F7F4FA3
:10025000CE0108960E943603729A429A0E94CE02FC
:10026000811111C0F70181818F7E8183888984FF8C
:1002700008C02F85982F9F7020838181807F892BD4
:100280008183109300018FE99FE00197F1F700C08F
:10029000000061960FB6F894DEBF0FBECDBFDF91B0
:1002A000CF911F91FF90EF9008958093AE00EDEAFB
:1002B000F0E080818823ECF78091AE000895282F2C
:1002C0002370E1E1F1E090819C7F922B908381117A
:1002D00009C06B9A399A6A9A729AECEAF0E08081C6
:1002E0008061808362FF05C0EDEAF0E0808181607B
:1002F0008083ECEAF0E0808180646370682B608327
:100300000895E9E0F1E0918380836483538342831D
:100310002583CF010E948D0108959F92AF92BF92D5
:10032000CF92DF92EF92FF920F931F93CF93DF93C1
:10033000FC01A480E080F180B580C280D380DB2DF9
:10034000BA1408F4DA2DDD2309F445C080858370E2
:100350008330D9F4A585B6858C9188238CF0A1854E
:10036000B285AA2019F0E701888101C08FEF8C9334
:100370000584F685E02D8081806880838EEF2EC015
:100380008C918F778C93C1E001C0C0E08F01CD17B5
:10039000C8F499249A94CA1528F4F701EC0FF11DBA
:1003A000808101C0892DD8015196ED91FC91529721
:1003B0000995CB1520F4F601EC0FF11D8083CF5F7A
:1003C000CD1748F3E801EF85F889309731F0C8017F
:1003D000099580E003C080E001C080E0DF91CF910B
:1003E0001F910F91FF90EF90DF90CF90BF90AF9053
:1003F0009F900895FC0180812FEF3FEF2827022E68
:100400002295207F2025032E322F22952F70022641
:10041000269532272327220F220F220F20254181E4
:10042000C9018427082E8295807F8025092E982F68
:1004300082958F700826869598278927880F880FC0
:10044000880F80254423F9F00280F381E02D41508C
:10045000242F30E02F5F3F4F2E0F3F1F4191842705
:10046000082E8295807F8025092E982F82958F7087
:100470000826869598278927880F880F880F80255A
:10048000E217F30759F70895CF93DF93EBE2F1E01A
:10049000C381D481A581B6812081277030E02330CB
:1004A0003105C9F124F42230310551F06DC02430FA
:1004B000310509F442C02530310509F454C064C047
:1004C000EBE2F1E081818C93828111969C911197EE
:1004D000981740F416968C911697816016968C9317
:1004E000169705C0891718F411968C931197EBE2B3
:1004F000F1E08081887F8360808312964D915C91CA
:1005000013970780F085E02D11962C9169818A81DF
:100510009B81099539C0EBE2F1E08081887F84609E
:100520008083AD014C5F5F4F0780F085E02D22E0B6
:1005300062E0CE010496099527C00000CD010E941B
:10054000FA01EBE2F1E0928381838081887F85600C
:1005500080830780F085E02D22E04CE251E062E0EC
:10056000CA01099511C091E040912C0150912D01D3
:100570002C813D814217530709F490E0EBE2F1E052
:100580008081887F892B8083DF91CF910895EBE272
:10059000F1E09087878372876187089580912B01AE
:1005A00087700895CF93DF93CDB7DEB72E970FB640
:1005B000F894DEBF0FBECDBFFE01389627E0DF0105
:1005C0001D922A95E9F769879B878A8787E0DE0174
:1005D000119601900D928A95E1F729813A814B811C
:1005E0005C816D817E818F8190E02E960FB6F894AC
:1005F000DEBF0FBECDBFDF91CF9108951F93CF9384
:10060000DF93CDB7DEB72E970FB6F894DEBF0FBEDF
:10061000CDBF182FCB01642F0E94D20239874A87A1
:100620005B876C877D878E871887CE0108960E942E
:10063000FA019D878C8787E0FE013896DE011196CE
:1006400001900D928A95E1F729813A814B815C8175
:100650006D817E818F8190E02E960FB6F894DEBF7B
:100660000FBECDBFDF91CF911F910895CF93DF9340
:10067000DC01EBE2F1E0C185D28584E492E099836C
:100680008883B483A383768365839081987F926007
:1006900090830780F085E02D22E04CE251E062E09B
:0E06A000CD010995DF91CF910895F894FFCF19
:1006AE00FF00040003000200010000000000000033
:1006BE000000AE00AD00AC000000550107010501C1
:0406CE000301010122
:00000001FF
