S0120000636F6E74726F6C6C65722E73726563CE
S11300000C945A000C9477000C9477000C947700AD
S11300100C9477000C9477000C9477000C94770080
S11300200C9477000C9477000C9477000C94770070
S11300300C9477000C9477000C9477000C94770060
S11300400C9477000C9477000C9477000C94770050
S11300500C9477000C9477000C9477000C94770040
S11300600C9477000C9477000C9477000C94770030
S11300700C9477000C9477000C9477000C94770020
S11300800C9477000C9477000C9477000C94770010
S11300900C9477000C9477000C9477000C94770000
S11300A00C9477000C9477000C9477000C947700F0
S11300B00C94770011241FBECFEFD8E0DEBFCDBF74
S11300C011E0A0E0B1E0E4E5F3E002C005900D9298
S11300D0A431B107D9F721E0A4E1B1E001C01D9238
S11300E0A631B207E1F70E94A3000C94A8010C9476
S11300F0000063E080E00E94AB0085EC90E00E9489
S11301006F016FEF7FEF81E00E949C016FEF7FEF43
S113011081E00E94A3012FEF89E698E121508040FD
S11301209040E1F700C0000060E070E081E00E94D0
S1130130A3012FEF89E698E1215080409040E1F738
S113014000C00000E3CF0E9479008EBD0DB407FE0D
S1130150FDCF8EB50895282F2370E8E0F1E090815B
S11301609C7F922B9083962F937090649CBD8111F9
S113017006C0239A259A229A8CB580618CBD62FFB1
S113018003C08DB581608DBD0895E0E0F1E09183F9
S113019080836483538342832583CF010E94D100EB
S11301A008959F92AF92BF92CF92DF92EF92FF9207
S11301B00F931F93CF93DF93FC01A480E080F18021
S11301C0B580C280D380DB2DBA1408F4DA2DDD2388
S11301D009F44FC0808583708330D9F4A585B68532
S11301E08C9188238CF0A185B285AA2019F0E701AF
S11301F0888101C08FEF8C930584F685E02D808182
S1130200806880838EEF38C08C918F778C93C1E0A7
S113021001C0C0E08F01CD1718F599249A94F80114
S11302209085937031F48BE291E00197F1F700C06F
S11302300000CA1528F4F701EC0FF11D808101C0FC
S1130240892DD8015196ED91FC9152970995CB15C2
S113025020F4F601EC0FF11D8083CF5FCD17F8F287
S1130260E801EF85F889309731F0C801099580E0FD
S113027003C080E001C080E0DF91CF911F910F9116
S1130280FF90EF90DF90CF90BF90AF909F90089534
S1130290CF93DF9300D000D0CDB7DEB795B19A7F6E
S11302A095B944988370880F806489836A834B83EB
S11302B01C82E0911401F091150120E040E050E02F
S11302C064E0CE010196099585B1856085B9449AAB
S11302D00F900F900F900F90DF91CF910895CF93CF
S11302E0DF9300D01F92CDB7DEB724B1256024B9C7
S11302F03C9A909315018093140185B18A7F85B946
S1130300449880E489838AE08A8388E08B83E0913F
S11303101401F091150120E040E050E063E0CE01CB
S11303200196099585B1856085B9449A0F900F901F
S11303300F90DF91CF910895AB014095509560E007
S11303400E9448010895AB0162E10E9448010895AA
S1070350F894FFCF4B
S11303540000000000000000004E004D004C0000AE
S107036400A50000EC
S9030000FC
