S0130000696E737472756374696F6E2E737265634F
S113000013C02DC02CC02BC02AC029C028C027C0B3
S113001026C025C024C023C022C021C020C0E3C202
S11300201EC01DC01CC01BC011241FBECFEFD2E0D8
S1130030DEBFCDBF11E0A0E0B1E0ECE2F7E002C02A
S113004005900D92A432B107D9F721E0A4E2B1E002
S113005001C01D92A835B207E1F70FD065C3D0CF18
S113006043E066E081E061D242E068E081E05DD295
S113007041E064E081E059D20895CF93DF93CDB796
S1130080DEB727970FB6F894DEBF0FBECDBF84B797
S1130090877F84BFE0E6F0E08081886180831082FE
S11300A080E480937C0084E880937A005BD281E0D2
S11300B05ED210D262E083E068D26FE071E088EE35
S11300C092E041D1789414E1A89544D180934C01F5
S11300D0823040F088E391E0C3DF3CD180934C014F
S11300E08230C0F7813011F400000BC0811109C0C7
S11300F0E4E2F1E0A8E3B1E0812F01900D928A954A
S1130100E1F7412F64E271E082E028D129833A8348
S11301104B835C836D837E838F83BE016F5F7F4FD0
S113012080E090E048D1D0CFFC0180812FEF3FEFF9
S11301302827022E2295207F2025032E322F229558
S11301402F700226269532272327220F220F220FF3
S113015020254181C9018427082E8295807F80252E
S1130160092E982F82958F700826869598278927BF
S1130170880F880F880F80254423F9F00280F381CB
S1130180E02D4150242F30E02F5F3F4F2E0F3F1FB3
S113019041918427082E8295807F8025092E982FEF
S11301A082958F700826869598278927880F880F4F
S11301B0880F8025E217F30759F70895CF93DF934B
S11301C0EDE4F1E0C381D481A581B681208127705B
S11301D030E02330310509F44EC02430310509F4F0
S11301E07DC02230310509F0ABC0109701F19C911C
S11301F080914E01981729F08081887F81608083E7
S11302009FC080914F0111969C911197981740F4CB
S113021016968C911697816016968C93169779C0D2
S1130220891708F076C011968C93119772C0EDE48B
S1130230F1E08081887F83608083209781F480C08F
S113024012964D915C911397E0915401F0915501F0
S113025011962C9169818A819B81099571C0E091E5
S11302605401F091550120E040E050E069818A8119
S11302709B81099565C0EDE4F1E08081887F84600D
S11302808083209779F01097E9F0AD014C5F5F4FC0
S1130290E0915401F091550122E062E0CE01049610
S11302A009954EC0109709F44BC0AD014C5F5F4FE8
S11302B0E0915401F091550122E060E080E090E08B
S11302C009953EC0E0915401F091550120E040E0D1
S11302D050E062E0CE010496099532C00000EDE4DE
S11302E0F1E08081887F8083109789F01496CD9106
S11302F0DC911597CD0118DF21E0C817D90709F45F
S113030020E0EDE4F1E08081887F822B808300008F
S113031017C0EDE4F1E08081887F836080832097BB
S113032009F08ECF12964D915C911397E091540190
S1130330F091550111962C9160E080E090E00995D0
S1130340DF91CF910895EDE4F1E090878783728780
S11303506187089580914D0187700895CF93DF934D
S1130360CDB7DEB72E970FB6F894DEBF0FBECDBF64
S1130370FE01389697E0DF011D929A95E9F7888788
S113038049877B876A8787E0DE01119601900D9289
S11303908A95E1F729813A814B815C816D817E8167
S11303A08F8190E02E960FB6F894DEBF0FBECDBFBE
S11303B0DF91CF910895CF93DF93DC01EDE4F1E079
S11303C0C185D2858EED90E099838883B483A3831D
S11303D0768365839081987F92609083109769F00B
S11303E0672BC9F0E0915401F091550122E04EE4ED
S11303F051E062E0CD01099520C0672BB9F0E0918E
S11304005401F091550122E04EE451E060E080E0B7
S113041090E0099512C0E0915401F091550120E05B
S113042040E050E062E0CD01099507C0EDE4F1E061
S11304308081887F816080838BEFDF91CF910895E5
S1130440CF93DF9300D000D0CDB7DEB719821A82E4
S11304501B821C8291E0981B892F9230A0F5880F93
S1130460990BE1E0F0E0EC0FFD1FE80FF91F60834A
S1130470FE01E80FF91F42838BB18C7F8BB9FE011B
S11304803196BE016B5F7F4F57E040E016C080811C
S113049090E0022E02C0959587950A94E2F780FFBA
S11304A002C02F9A01C02F985D9A5D98215031099E
S11304B070F73196E617F70719F0252F342FE7CF99
S11304C08BB183608BB90F900F900F900F90DF91D9
S11304D0CF910895CF93DF938AB183608AB9559AF7
S11304E0279A8BB18C7F8BB95D9A2F9AD0E047E025
S11304F06BE08D2FA5DF40E069E08D2FA1DF41E0A7
S11305006CE08D2F9DDF48E06AE08D2F99DFC1E01C
S113051040E06C2F8D2F94DFCF5FC930C9F7DF5FC8
S1130520D23029F7DF91CF910895E0EDE40FEA305E
S113053098F09FE9940F9A3118F4E9EAE40F0CC09B
S11305409FEB940F9A3118F4E9ECE40F05C04031A5
S113055010F0E0E001C0E42FF0E0ED5EFE4F4081DA
S11305606FDF0895389A399A699A3A9A08958823D8
S113057021F088B1887F88B90895429A08958EBD84
S11305800DB407FEFDCF8EB50895282F2370E8E043
S1130590F1E090819C7F922B9083962F93709064CE
S11305A09CBD811109C02498239A259A229A2A9ADB
S11305B08CB580618CBD06C080FF04C0249A23984A
S11305C02598229862FF03C08DB581608DBD089582
S11305D0E0E0F1E091838083648353834283258345
S11305E0CF0126D008951F920F920FB60F921124B7
S11305F02F933F934F935F936F937F938F939F9327
S1130600AF93BF93EF93FF9380E091E077D0FF9196
S1130610EF91BF91AF919F918F917F916F915F9176
S11306204F913F912F910F900FBE0F901F901895EF
S1130630FF920F931F93CF93DF93FC0194818581E5
S1130640891710F4D48101C0D581808583708330EB
S1130650E9F4A585B6858C9188239CF0A185B285A3
S11306608481882321F0C081D181888101C08FEFEA
S11306708C930584F685E02D8081806880838EEFDD
S113068037C08C918F778C93C1E001C0C0E08F019B
S1130690CD1710F5FF24FA94D80114968C91149771
S11306A0C81730F4ED91FC91EC0FF11D808101C06D
S11306B08F2DD8015196ED91FC9152970995F8012F
S11306C09581C91730F40280F381E02DEC0FF11D00
S11306D08083CF5FCD1700F3D8011F96ED91FC9175
S11306E05097309721F0C801099580E001C080E05F
S11306F0DF91CF911F910F91FF900895CF93DF93D6
S1130700DC0115962C911597222351F01296ED9148
S1130710FC91139719960D90BC91A02D2C912083D8
S10F072087DFDF91CF910895F894FFCF9C
S113072C0000000000000000004E004D004C0000D2
S113073C00BF027E306D79335B5F707F7B771F4E19
S107074C3D4F4700D2
S9030000FC
