:1000000040C052C051C050C04FC04EC04DC04CC087
:100010004BC04AC049C048C047C046C045C072C472
:1000200043C042C041C040C0E2C0E1C0E0C0DFC048
:10003000DEC0DDC0DCC0DBC0E9C0F5C001C10DC160
:1000400019C125C131C1B6C1B5C1B4C1B3C1B2C1B5
:10005000B1C1B0C1AFC1BDC1C9C1D5C1E1C1EDC15F
:10006000F9C105C286C285C284C283C282C281C26E
:1000700080C27FC28DC299C2A5C2B1C2BDC2C9C26F
:10008000D5C211241FBECFEFD2E0DEBFCDBF11E03D
:10009000A0E0B1E0E0E7FAE002C005900D92A831DF
:1000A000B107D9F73FD3E2C4ABCFEF92FF920F93E2
:1000B0001F93CF93DF931F92CDB7DEB78C01DC0186
:1000C0001296ED90FC9013974E2D4F7068E080E0F3
:1000D000D1D3A701529542954F7045275F704527B0
:1000E0004F7064E080E0C6D34F2D4F7063E080E036
:1000F000C1D3F801E080F1804E2D4F7062E081E0C5
:10010000B9D3A701529542954F7045275F70452797
:100110004F7062E080E0AED34F2D4F7066E080E01C
:10012000A9D3D8011496ED90FC9015974E2D4F70E1
:1001300067E080E09FD3A701529542954F70452715
:100140005F7045274F7065E080E094D34F2D4F706E
:1001500061E080E08FD3F801E680F7804E2D4F708C
:1001600066E081E087D3A701529542954F704527FD
:100170005F7045274F7068E081E07CD34F2D4F7052
:1001800064E081E077D3D80119968D919C911A97FC
:100190003ED432D4F801408563E081E06BD3EAE7D6
:1001A000F0E08081806480839081292F207496FD07
:1001B000FBCF80917800909179008F3EF2E09F070D
:1001C00030F48A3F910510F021E001C022E029833C
:1001D00089818111DFC0D8011B96EC91EF70F0E0AE
:1001E000EF30F10508F06DC0EC5EFF4F09944FEF62
:1001F00061E081E03FD342E565E081E03BD3F80177
:1002000043854F7067E081E035D384C24FEF61E0F2
:1002100081E030D340E565E081E02CD343E467E042
:1002200081E028D377C24DE461E081E023D344E448
:1002300065E081E01FD342E567E081E01BD36AC23D
:100240004DE461E081E016D341E465E081E012D342
:1002500042E567E081E00ED35DC243E561E081E005
:1002600009D342E565E081E005D347E467E081E03A
:1002700001D350C24FEF61E081E0FCD24FEF65E067
:1002800081E0F8D249E567E081E0F4D21AC04FEF8F
:1002900061E081E0EFD24FEF65E081E0EBD24AE52B
:1002A00067E081E0E7D236C24FEF61E081E0E2D261
:1002B00043E565E081E0DED240E567E081E0DAD247
:1002C00029C2D8011B968C911B9782958F701C9622
:1002D0009C91292F2295207F422F482B592F5295F0
:1002E0005F704F705078552334F441505109406F7E
:1002F0005F6F4F5F5F4F67E081E0BCD2F8012385FD
:1003000022952F703485432F4295407F842F822B76
:10031000932F92959F7099230CF40F96959587953E
:10032000959587959595879595958795AC014F708F
:100330005078552334F441505109406F5F6F4F5F3F
:100340005F4F65E081E096D2D8011B962C911B97F8
:1003500022952F701C963C91432F4295407F842F0D
:10036000822B932F92959F70992314F481509F4F65
:10037000892F990F990BAC014F705078552334F4A5
:1003800041505109406F5F6F4F5F5F4F61E081E007
:1003900071D2C0C18981813009F0DFC0D8011D96BA
:1003A000EC91EF70F0E0EF30F10508F06DC0ED5D1D
:1003B000FF4F09944FEF61E081E05CD242E565E0D8
:1003C00081E058D2F80145854F7067E081E052D254
:1003D000A1C14FEF61E081E04DD240E565E081E0F1
:1003E00049D243E467E081E045D294C14DE461E045
:1003F00081E040D244E465E081E03CD242E567E040
:1004000081E038D287C14DE461E081E033D241E43C
:1004100065E081E02FD242E567E081E02BD27AC12E
:1004200043E561E081E026D242E565E081E022D249
:1004300047E467E081E01ED26DC14FEF61E081E0EB
:1004400019D24FEF65E081E015D249E567E081E020
:1004500011D21AC04FEF61E081E00CD24FEF65E09E
:1004600081E008D24AE567E081E004D253C14FEF52
:1004700061E081E0FFD143E565E081E0FBD140E54B
:1004800067E081E0F7D146C1D8011D968C911D9798
:1004900082958F701E969C91292F2295207F422F46
:1004A000482B592F52955F704F705078552334F474
:1004B00041505109406F5F6F4F5F5F4F67E081E0D0
:1004C000D9D1F801258522952F703685432F429585
:1004D000407F842F822B932F92959F7099230CF449
:1004E0000F9695958795959587959595879595956B
:1004F0008795AC014F705078552334F44150510921
:10050000406F5F6F4F5F5F4F65E081E0B3D1D8010F
:100510001D962C911D9722952F701E963C91432F6E
:100520004295407F842F822B932F92959F70992321
:1005300014F481509F4F892F990F990BAC014F7084
:100540005078552334F441505109406F5F6F4F5F2D
:100550005F4F61E081E08ED1DDC0D8011F96EC9144
:10056000EF70F0E0EF30F10508F06DC0EE5CFF4F8A
:1005700009944FEF61E081E07DD142E565E081E0E3
:1005800079D1F80147854F7067E081E073D1C2C02F
:100590004FEF61E081E06ED140E565E081E06AD136
:1005A00043E467E081E066D1B5C04DE461E081E0FD
:1005B00061D144E465E081E05DD142E567E081E03E
:1005C00059D1A8C04DE461E081E054D141E465E037
:1005D00081E050D142E567E081E04CD19BC043E52A
:1005E00061E081E047D142E565E081E043D147E445
:1005F00067E081E03FD18EC04FEF61E081E03AD10A
:100600004FEF65E081E036D149E567E081E032D126
:100610001AC04FEF61E081E02DD14FEF65E081E03E
:1006200029D14AE567E081E025D174C04FEF61E050
:1006300081E020D143E565E081E01CD140E567E041
:1006400081E018D167C0D8011F968C911F978295C1
:100650008F7050969C91292F2295207F422F482BF6
:10066000592F52955F704F705078552334F4415094
:100670005109406F5F6F4F5F5F4F67E081E0FAD0D5
:10068000F801878582958F709089292F2295207F88
:10069000422F482B592F52955F70552314F4415F18
:1006A0005F4F559547955595479555954795559560
:1006B00047954F705078552334F441505109406F9D
:1006C0005F6F4F5F5F4F65E081E0D4D0D8011F9628
:1006D0008C911F9782958F7050969C91292F22950F
:1006E000207F422F482B592F52955F70552314F4C9
:1006F00041505F4F452F550F550B4F705078552384
:1007000034F441505109406F5F6F4F5F5F4F61E0BC
:1007100081E0B0D00F90DF91CF911F910F91FF90AA
:10072000EF900895CF93DF93CDB7DEB761970FB603
:10073000F894DEBF0FBECDBF83E480937C0087E8D2
:1007400080937A004CD181E04FD173D066E081E094
:10075000AED078940F2EF1E1FF2EF02D8E010F5FB9
:100760001F4FF8018F2D11928A95E9F76F2DC8015F
:10077000BAD08F3FB1F7AFD08823E9F3C80195DC39
:10078000F0CFCF93DF9300D000D0CDB7DEB7198282
:100790001A821B821C8290E0880F991FE1E0F0E032
:1007A000EC0FFD1FE80FF91F6083FE01E80FF91F32
:1007B00042838BB18C7F8BB9FE013196BE016B5F9A
:1007C0007F4F57E040E028C0808190E0022E02C0B9
:1007D000959587950A94E2F780FF02C02F9A01C091
:1007E0002F9887EC90E00197F1F700C000005D9A28
:1007F00087EC90E00197F1F700C000005D9887EC6E
:1008000090E00197F1F700C0000021503109E0F6B7
:100810003196E617F70719F0252F342FD5CF8BB176
:1008200083608BB90F900F900F900F90DF91CF9155
:100830000895CF938AB183608AB9559A279A8BB16C
:100840008C7F8BB95D9A2F9AC0E047E06BE08C2FCC
:1008500098DF40E069E08C2F94DF41E06CE08C2F62
:1008600090DF48E06AE08C2F8CDFCF5FC23069F701
:10087000CF910895E0EDE40FEA3098F09FE9940FEE
:100880009A3118F4E9EAE40F0CC09FEB940F9A3107
:1008900018F4E9ECE40F05C0403110F0E0E001C0CD
:1008A000E42FF0E0E95FFE4F40816BDF0895E4E064
:1008B000F1E0908180FB90F99083813031F48CB528
:1008C000806C962F9370892B8CBD62FF03C08DB511
:1008D00081608DBD08958091040183FB882780F994
:1008E00091E0892708959C01462FE4E0F1E0908192
:1008F00092609083908194609083B90180E091E050
:1009000026D008951F920F920FB60F9211242F93A5
:100910003F934F935F936F937F938F939F93AF9387
:10092000BF93EF93FF9380E091E02BD0FF91EF9185
:10093000BF91AF919F918F917F916F915F914F91F7
:100940003F912F910F900FBE0F901F901895FC01B3
:10095000848183FD12C0718360834383128284810A
:1009600088608483848180FD0AC00580F681E02D43
:10097000DB018C9180838FEF089580E008958FEFE5
:100980000895CF93DF93FC01848183FF25C0A58167
:10099000B6812C9182818F5F82839381891720F0A9
:1009A0008481877F84830CC0848181FF07C082811A
:1009B000C081D181C80FD11D888101C08FEF8C9378
:1009C000848182FF09C0828190E001970190F081CB
:1009D000E02DE80FF91F2083DF91CF910895389A19
:1009E000399A699A3A9A0895882321F088B1887FC4
:1009F00088B90895429A0895719A87EC90E001971A
:100A0000F1F700C000008EB18C7F8EB90895FC0113
:100A100020E030E061E070E0AB01022E02C0440F44
:100A2000551F0A94E2F74E235F23452B11F0419A9C
:100A300003C098B19C7F98B987EC90E00197F1F7DB
:100A400000C00000409A87EC90E00197F1F700C0E9
:100A50000000409887EC90E00197F1F700C000009B
:100A60002F5F3F4F20313105B9F60895F894FFCF3D
:100A700000000000004E007E306D79335B5F707FB8
:080A80007B771F4E3D4F47003C
:00000001FF
